{
  "_format": "hh-sol-artifact-1",
  "contractName": "PetIdentityRegistry",
  "sourceName": "contracts/PetIdentityRegistry.sol",
  "abi": [
    {
      "inputs": [],
      "stateMutability": "nonpayable",
      "type": "constructor"
    },
    {
      "anonymous": false,
      "inputs": [
        {
          "indexed": false,
          "internalType": "address",
          "name": "clinic",
          "type": "address"
        }
      ],
      "name": "ClinicAdded",
      "type": "event"
    },
    {
      "anonymous": false,
      "inputs": [
        {
          "indexed": false,
          "internalType": "address",
          "name": "clinic",
          "type": "address"
        }
      ],
      "name": "ClinicRemoved",
      "type": "event"
    },
    {
      "anonymous": false,
      "inputs": [
        {
          "indexed": true,
          "internalType": "uint256",
          "name": "petId",
          "type": "uint256"
        },
        {
          "indexed": true,
          "internalType": "uint256",
          "name": "recordId",
          "type": "uint256"
        }
      ],
      "name": "MedicalRecordAdded",
      "type": "event"
    },
    {
      "anonymous": false,
      "inputs": [
        {
          "indexed": true,
          "internalType": "uint256",
          "name": "petId",
          "type": "uint256"
        },
        {
          "indexed": true,
          "internalType": "uint256",
          "name": "recordId",
          "type": "uint256"
        },
        {
          "indexed": false,
          "internalType": "bool",
          "name": "verified",
          "type": "bool"
        }
      ],
      "name": "MedicalRecordVerified",
      "type": "event"
    },
    {
      "anonymous": false,
      "inputs": [
        {
          "indexed": true,
          "internalType": "uint256",
          "name": "petId",
          "type": "uint256"
        },
        {
          "indexed": true,
          "internalType": "address",
          "name": "oldOwner",
          "type": "address"
        },
        {
          "indexed": true,
          "internalType": "address",
          "name": "newOwner",
          "type": "address"
        }
      ],
      "name": "OwnershipTransferred",
      "type": "event"
    },
    {
      "anonymous": false,
      "inputs": [
        {
          "indexed": true,
          "internalType": "uint256",
          "name": "petId",
          "type": "uint256"
        },
        {
          "indexed": false,
          "internalType": "string",
          "name": "publicId",
          "type": "string"
        },
        {
          "indexed": true,
          "internalType": "address",
          "name": "owner",
          "type": "address"
        }
      ],
      "name": "PetRegistered",
      "type": "event"
    },
    {
      "anonymous": false,
      "inputs": [
        {
          "indexed": true,
          "internalType": "uint256",
          "name": "petId",
          "type": "uint256"
        }
      ],
      "name": "PetUpdated",
      "type": "event"
    },
    {
      "inputs": [
        {
          "internalType": "address",
          "name": "clinic",
          "type": "address"
        }
      ],
      "name": "addClinic",
      "outputs": [],
      "stateMutability": "nonpayable",
      "type": "function"
    },
    {
      "inputs": [
        {
          "internalType": "uint256",
          "name": "petId",
          "type": "uint256"
        },
        {
          "internalType": "string",
          "name": "vaccineType",
          "type": "string"
        },
        {
          "internalType": "string",
          "name": "batchNumber",
          "type": "string"
        },
        {
          "internalType": "uint256",
          "name": "givenAt",
          "type": "uint256"
        }
      ],
      "name": "addMedicalRecord",
      "outputs": [
        {
          "internalType": "uint256",
          "name": "",
          "type": "uint256"
        }
      ],
      "stateMutability": "nonpayable",
      "type": "function"
    },
    {
      "inputs": [
        {
          "internalType": "address",
          "name": "",
          "type": "address"
        }
      ],
      "name": "clinics",
      "outputs": [
        {
          "internalType": "bool",
          "name": "",
          "type": "bool"
        }
      ],
      "stateMutability": "view",
      "type": "function"
    },
    {
      "inputs": [],
      "name": "contractOwner",
      "outputs": [
        {
          "internalType": "address",
          "name": "",
          "type": "address"
        }
      ],
      "stateMutability": "view",
      "type": "function"
    },
    {
      "inputs": [
        {
          "internalType": "uint256",
          "name": "petId",
          "type": "uint256"
        }
      ],
      "name": "getMedicalRecords",
      "outputs": [
        {
          "components": [
            {
              "internalType": "uint256",
              "name": "id",
              "type": "uint256"
            },
            {
              "internalType": "uint256",
              "name": "petId",
              "type": "uint256"
            },
            {
              "internalType": "string",
              "name": "vaccineType",
              "type": "string"
            },
            {
              "internalType": "string",
              "name": "batchNumber",
              "type": "string"
            },
            {
              "internalType": "uint256",
              "name": "givenAt",
              "type": "uint256"
            },
            {
              "internalType": "address",
              "name": "clinic",
              "type": "address"
            },
            {
              "internalType": "bool",
              "name": "verified",
              "type": "bool"
            }
          ],
          "internalType": "struct PetIdentityRegistry.MedicalRecord[]",
          "name": "",
          "type": "tuple[]"
        }
      ],
      "stateMutability": "view",
      "type": "function"
    },
    {
      "inputs": [
        {
          "internalType": "uint256",
          "name": "petId",
          "type": "uint256"
        }
      ],
      "name": "getPet",
      "outputs": [
        {
          "components": [
            {
              "internalType": "uint256",
              "name": "id",
              "type": "uint256"
            },
            {
              "internalType": "string",
              "name": "publicId",
              "type": "string"
            },
            {
              "internalType": "string",
              "name": "name",
              "type": "string"
            },
            {
              "internalType": "string",
              "name": "species",
              "type": "string"
            },
            {
              "internalType": "string",
              "name": "breed",
              "type": "string"
            },
            {
              "internalType": "uint256",
              "name": "birthDate",
              "type": "uint256"
            },
            {
              "internalType": "address",
              "name": "owner",
              "type": "address"
            },
            {
              "internalType": "bool",
              "name": "exists",
              "type": "bool"
            }
          ],
          "internalType": "struct PetIdentityRegistry.Pet",
          "name": "",
          "type": "tuple"
        }
      ],
      "stateMutability": "view",
      "type": "function"
    },
    {
      "inputs": [
        {
          "internalType": "string",
          "name": "publicId",
          "type": "string"
        }
      ],
      "name": "getPetIdByPublicId",
      "outputs": [
        {
          "internalType": "uint256",
          "name": "",
          "type": "uint256"
        }
      ],
      "stateMutability": "view",
      "type": "function"
    },
    {
      "inputs": [
        {
          "internalType": "uint256",
          "name": "",
          "type": "uint256"
        },
        {
          "internalType": "uint256",
          "name": "",
          "type": "uint256"
        }
      ],
      "name": "medicalRecords",
      "outputs": [
        {
          "internalType": "uint256",
          "name": "id",
          "type": "uint256"
        },
        {
          "internalType": "uint256",
          "name": "petId",
          "type": "uint256"
        },
        {
          "internalType": "string",
          "name": "vaccineType",
          "type": "string"
        },
        {
          "internalType": "string",
          "name": "batchNumber",
          "type": "string"
        },
        {
          "internalType": "uint256",
          "name": "givenAt",
          "type": "uint256"
        },
        {
          "internalType": "address",
          "name": "clinic",
          "type": "address"
        },
        {
          "internalType": "bool",
          "name": "verified",
          "type": "bool"
        }
      ],
      "stateMutability": "view",
      "type": "function"
    },
    {
      "inputs": [],
      "name": "nextPetId",
      "outputs": [
        {
          "internalType": "uint256",
          "name": "",
          "type": "uint256"
        }
      ],
      "stateMutability": "view",
      "type": "function"
    },
    {
      "inputs": [],
      "name": "nextRecordId",
      "outputs": [
        {
          "internalType": "uint256",
          "name": "",
          "type": "uint256"
        }
      ],
      "stateMutability": "view",
      "type": "function"
    },
    {
      "inputs": [
        {
          "internalType": "uint256",
          "name": "",
          "type": "uint256"
        }
      ],
      "name": "pets",
      "outputs": [
        {
          "internalType": "uint256",
          "name": "id",
          "type": "uint256"
        },
        {
          "internalType": "string",
          "name": "publicId",
          "type": "string"
        },
        {
          "internalType": "string",
          "name": "name",
          "type": "string"
        },
        {
          "internalType": "string",
          "name": "species",
          "type": "string"
        },
        {
          "internalType": "string",
          "name": "breed",
          "type": "string"
        },
        {
          "internalType": "uint256",
          "name": "birthDate",
          "type": "uint256"
        },
        {
          "internalType": "address",
          "name": "owner",
          "type": "address"
        },
        {
          "internalType": "bool",
          "name": "exists",
          "type": "bool"
        }
      ],
      "stateMutability": "view",
      "type": "function"
    },
    {
      "inputs": [
        {
          "internalType": "string",
          "name": "",
          "type": "string"
        }
      ],
      "name": "publicIdToPetId",
      "outputs": [
        {
          "internalType": "uint256",
          "name": "",
          "type": "uint256"
        }
      ],
      "stateMutability": "view",
      "type": "function"
    },
    {
      "inputs": [
        {
          "internalType": "string",
          "name": "publicId",
          "type": "string"
        },
        {
          "internalType": "string",
          "name": "name",
          "type": "string"
        },
        {
          "internalType": "string",
          "name": "species",
          "type": "string"
        },
        {
          "internalType": "string",
          "name": "breed",
          "type": "string"
        },
        {
          "internalType": "uint256",
          "name": "birthDate",
          "type": "uint256"
        }
      ],
      "name": "registerPet",
      "outputs": [
        {
          "internalType": "uint256",
          "name": "",
          "type": "uint256"
        }
      ],
      "stateMutability": "nonpayable",
      "type": "function"
    },
    {
      "inputs": [
        {
          "internalType": "address",
          "name": "clinic",
          "type": "address"
        }
      ],
      "name": "removeClinic",
      "outputs": [],
      "stateMutability": "nonpayable",
      "type": "function"
    },
    {
      "inputs": [
        {
          "internalType": "uint256",
          "name": "petId",
          "type": "uint256"
        },
        {
          "internalType": "address",
          "name": "newOwner",
          "type": "address"
        }
      ],
      "name": "transferOwnership",
      "outputs": [],
      "stateMutability": "nonpayable",
      "type": "function"
    },
    {
      "inputs": [
        {
          "internalType": "uint256",
          "name": "petId",
          "type": "uint256"
        },
        {
          "internalType": "string",
          "name": "name",
          "type": "string"
        },
        {
          "internalType": "string",
          "name": "species",
          "type": "string"
        },
        {
          "internalType": "string",
          "name": "breed",
          "type": "string"
        },
        {
          "internalType": "uint256",
          "name": "birthDate",
          "type": "uint256"
        }
      ],
      "name": "updatePetBasicData",
      "outputs": [],
      "stateMutability": "nonpayable",
      "type": "function"
    },
    {
      "inputs": [
        {
          "internalType": "uint256",
          "name": "petId",
          "type": "uint256"
        },
        {
          "internalType": "uint256",
          "name": "recordIndex",
          "type": "uint256"
        },
        {
          "internalType": "bool",
          "name": "verified",
          "type": "bool"
        }
      ],
      "name": "verifyMedicalRecord",
      "outputs": [],
      "stateMutability": "nonpayable",
      "type": "function"
    }
  ],
  "bytecode": "0x608060405234801561001057600080fd5b50600580546001600160a01b03191633179055611d88806100326000396000f3fe608060405234801561001057600080fd5b506004361061010b5760003560e01c806364607751116100a2578063d8a6ff6311610071578063d8a6ff6314610258578063dbde207d1461026b578063ea6a49b514610274578063ee9613791461029f578063ffbcfac2146102c557600080fd5b806364607751146101c0578063b3ee3e9c146101f3578063ce606ee014610206578063cfb869bf1461023157600080fd5b8063403f8cc7116100de578063403f8cc7146101715780634b5361031461017a578063515555461461018d57806359d55194146101a057600080fd5b806316aaa4c0146101105780631a9531621461012557806329507f731461013857806335d7fbca1461014b575b600080fd5b61012361011e366004611594565b6102e5565b005b6101236101333660046115b6565b6103db565b6101236101463660046115f4565b610535565b61015e6101593660046116c3565b610677565b6040519081526020015b60405180910390f35b61015e60035481565b61015e610188366004611738565b610802565b61012361019b366004611775565b610891565b6101b36101ae36600461180f565b610970565b6040516101689190611878565b6101e36101ce366004611594565b60066020526000908152604090205460ff1681565b6040519015158152602001610168565b610123610201366004611594565b610ca0565b600554610219906001600160a01b031681565b6040516001600160a01b039091168152602001610168565b61024461023f36600461180f565b610d9b565b604051610168989796959493929190611938565b61015e6102663660046119ba565b61100b565b61015e60045481565b61015e610282366004611738565b805160208183018101805160018252928201919093012091525481565b6102b26102ad366004611a0c565b6111e9565b6040516101689796959493929190611a2e565b6102d86102d336600461180f565b611367565b6040516101689190611a8a565b6005546001600160a01b031633146103395760405162461bcd60e51b81526020600482015260126024820152712737ba1031b7b73a3930b1ba1037bbb732b960711b60448201526064015b60405180910390fd5b6001600160a01b0381166103805760405162461bcd60e51b815260206004820152600e60248201526d496e76616c696420636c696e696360901b6044820152606401610330565b6001600160a01b038116600081815260066020908152604091829020805460ff1916600117905590519182527fa9b06e13f310aa98b320ecd0e9b4b0022d3ddb4d81ee7f53d345b11a01d58ec291015b60405180910390a150565b6000838152602081905260409020600601548390600160a01b900460ff166104155760405162461bcd60e51b815260040161033090611b4f565b3360009081526006602052604090205460ff166104445760405162461bcd60e51b815260040161033090611b7b565b60008481526002602052604090205483106104a15760405162461bcd60e51b815260206004820152601a60248201527f5265636f726420696e646578206f7574206f6620626f756e64730000000000006044820152606401610330565b60008481526002602052604081208054859081106104c1576104c1611ba9565b90600052602060002090600602019050828160050160146101000a81548160ff0219169083151502179055508060000154857fbf3f958b621dc1c8ab5335cd30b73edc839a451ae6fb9373d5e05b428b09fa8c85604051610526911515815260200190565b60405180910390a35050505050565b6000828152602081905260409020600601548290600160a01b900460ff1661056f5760405162461bcd60e51b815260040161033090611b4f565b60008381526020819052604090206006015483906001600160a01b031633146105ca5760405162461bcd60e51b815260206004820152600d60248201526c2737ba103832ba1037bbb732b960991b6044820152606401610330565b6001600160a01b0383166106145760405162461bcd60e51b815260206004820152601160248201527024b73b30b634b2103732bb9037bbb732b960791b6044820152606401610330565b60008481526020819052604080822060060180546001600160a01b031981166001600160a01b038881169182179093559251911692839188917f16b85f49bf01212961345d3016c9a531894accf62eb7680f2045d79185cc0ec091a45050505050565b6000848152602081905260408120600601548590600160a01b900460ff166106b15760405162461bcd60e51b815260040161033090611b4f565b3360009081526006602052604090205460ff166106e05760405162461bcd60e51b815260040161033090611b7b565b6001600460008282546106f39190611bbf565b90915550506004546000878152600260208181526040808420815160e0810183528681528084018d81529281018c8152606082018c9052608082018b90523360a083015260c08201879052825460018181018555938852949096208151600690950201938455915190830155925190918201906107709082611c63565b50606082015160038201906107859082611c63565b506080820151600482015560a08201516005909101805460c0909301511515600160a01b026001600160a81b03199093166001600160a01b0390921691909117919091179055604051819088907f8bcb5b69557e09a9c40e3834e962fb82745736b89701b0e6dc294d37e55b038c90600090a39695505050505050565b6000806001836040516108159190611d23565b90815260200160405180910390205490508060001415801561084f5750600081815260208190526040902060060154600160a01b900460ff165b61088b5760405162461bcd60e51b815260206004820152600d60248201526c14195d081b9bdd08199bdd5b99609a1b6044820152606401610330565b92915050565b6000858152602081905260409020600601548590600160a01b900460ff166108cb5760405162461bcd60e51b815260040161033090611b4f565b3360009081526006602052604090205460ff166108fa5760405162461bcd60e51b815260040161033090611b7b565b6000868152602081905260409020600281016109168782611c63565b50600381016109258682611c63565b50600481016109348582611c63565b506005810183905560405187907f0d4618b49c983ae448ab6f4a1d3b2c1b9e357e61226eeb1a3133b497a7f8236590600090a250505050505050565b6109c360405180610100016040528060008152602001606081526020016060815260200160608152602001606081526020016000815260200160006001600160a01b031681526020016000151581525090565b6000828152602081905260409020600601548290600160a01b900460ff166109fd5760405162461bcd60e51b815260040161033090611b4f565b6000838152602081815260409182902082516101008101909352805483526001810180549192840191610a2f90611be0565b80601f0160208091040260200160405190810160405280929190818152602001828054610a5b90611be0565b8015610aa85780601f10610a7d57610100808354040283529160200191610aa8565b820191906000526020600020905b815481529060010190602001808311610a8b57829003601f168201915b50505050508152602001600282018054610ac190611be0565b80601f0160208091040260200160405190810160405280929190818152602001828054610aed90611be0565b8015610b3a5780601f10610b0f57610100808354040283529160200191610b3a565b820191906000526020600020905b815481529060010190602001808311610b1d57829003601f168201915b50505050508152602001600382018054610b5390611be0565b80601f0160208091040260200160405190810160405280929190818152602001828054610b7f90611be0565b8015610bcc5780601f10610ba157610100808354040283529160200191610bcc565b820191906000526020600020905b815481529060010190602001808311610baf57829003601f168201915b50505050508152602001600482018054610be590611be0565b80601f0160208091040260200160405190810160405280929190818152602001828054610c1190611be0565b8015610c5e5780601f10610c3357610100808354040283529160200191610c5e565b820191906000526020600020905b815481529060010190602001808311610c4157829003601f168201915b5050509183525050600582015460208201526006909101546001600160a01b0381166040830152600160a01b900460ff16151560609091015291505b50919050565b6005546001600160a01b03163314610cef5760405162461bcd60e51b81526020600482015260126024820152712737ba1031b7b73a3930b1ba1037bbb732b960711b6044820152606401610330565b6001600160a01b03811660009081526006602052604090205460ff16610d4a5760405162461bcd60e51b815260206004820152601060248201526f10db1a5b9a58c81b9bdd08199bdd5b9960821b6044820152606401610330565b6001600160a01b038116600081815260066020908152604091829020805460ff1916905590519182527f31134a5c78b4c081f17bfd964c5bdaead90180e6ad03bd87e36a17d0905f052891016103d0565b60006020819052908152604090208054600182018054919291610dbd90611be0565b80601f0160208091040260200160405190810160405280929190818152602001828054610de990611be0565b8015610e365780601f10610e0b57610100808354040283529160200191610e36565b820191906000526020600020905b815481529060010190602001808311610e1957829003601f168201915b505050505090806002018054610e4b90611be0565b80601f0160208091040260200160405190810160405280929190818152602001828054610e7790611be0565b8015610ec45780601f10610e9957610100808354040283529160200191610ec4565b820191906000526020600020905b815481529060010190602001808311610ea757829003601f168201915b505050505090806003018054610ed990611be0565b80601f0160208091040260200160405190810160405280929190818152602001828054610f0590611be0565b8015610f525780601f10610f2757610100808354040283529160200191610f52565b820191906000526020600020905b815481529060010190602001808311610f3557829003601f168201915b505050505090806004018054610f6790611be0565b80601f0160208091040260200160405190810160405280929190818152602001828054610f9390611be0565b8015610fe05780601f10610fb557610100808354040283529160200191610fe0565b820191906000526020600020905b815481529060010190602001808311610fc357829003601f168201915b5050505060058301546006909301549192916001600160a01b0381169150600160a01b900460ff1688565b600060018660405161101d9190611d23565b9081526020016040518091039020546000146110735760405162461bcd60e51b81526020600482015260156024820152741c1d589b1a58d25908185b1c9958591e481d5cd959605a1b6044820152606401610330565b6001600360008282546110869190611bbf565b9091555050600354604080516101008101825282815260208082018a81528284018a9052606083018990526080830188905260a083018790523360c0840152600160e084018190526000868152928390529390912082518155905191929091908201906110f39082611c63565b50604082015160028201906111089082611c63565b506060820151600382019061111d9082611c63565b50608082015160048201906111329082611c63565b5060a0820151600582015560c08201516006909101805460e0909301511515600160a01b026001600160a81b03199093166001600160a01b0390921691909117919091179055604051819060019061118b908a90611d23565b908152602001604051809103902081905550336001600160a01b0316817fb6e6a2b70e94927da2e9b091a9c1ff51fb4287e8f55ee2d8f93f57ae7ecd4946896040516111d79190611d3f565b60405180910390a39695505050505050565b6002602052816000526040600020818154811061120557600080fd5b90600052602060002090600602016000915091505080600001549080600101549080600201805461123590611be0565b80601f016020809104026020016040519081016040528092919081815260200182805461126190611be0565b80156112ae5780601f10611283576101008083540402835291602001916112ae565b820191906000526020600020905b81548152906001019060200180831161129157829003601f168201915b5050505050908060030180546112c390611be0565b80601f01602080910402602001604051908101604052809291908181526020018280546112ef90611be0565b801561133c5780601f106113115761010080835404028352916020019161133c565b820191906000526020600020905b81548152906001019060200180831161131f57829003601f168201915b5050505060048301546005909301549192916001600160a01b0381169150600160a01b900460ff1687565b6000818152602081905260409020600601546060908290600160a01b900460ff166113a45760405162461bcd60e51b815260040161033090611b4f565b600083815260026020908152604080832080548251818502810185019093528083529193909284015b8282101561156c57838290600052602060002090600602016040518060e0016040529081600082015481526020016001820154815260200160028201805461141490611be0565b80601f016020809104026020016040519081016040528092919081815260200182805461144090611be0565b801561148d5780601f106114625761010080835404028352916020019161148d565b820191906000526020600020905b81548152906001019060200180831161147057829003601f168201915b505050505081526020016003820180546114a690611be0565b80601f01602080910402602001604051908101604052809291908181526020018280546114d290611be0565b801561151f5780601f106114f45761010080835404028352916020019161151f565b820191906000526020600020905b81548152906001019060200180831161150257829003601f168201915b505050918352505060048201546020808301919091526005909201546001600160a01b0381166040830152600160a01b900460ff16151560609091015290825260019290920191016113cd565b50505050915050919050565b80356001600160a01b038116811461158f57600080fd5b919050565b6000602082840312156115a657600080fd5b6115af82611578565b9392505050565b6000806000606084860312156115cb57600080fd5b8335925060208401359150604084013580151581146115e957600080fd5b809150509250925092565b6000806040838503121561160757600080fd5b8235915061161760208401611578565b90509250929050565b634e487b7160e01b600052604160045260246000fd5b600082601f83011261164757600080fd5b813567ffffffffffffffff8082111561166257611662611620565b604051601f8301601f19908116603f0116810190828211818310171561168a5761168a611620565b816040528381528660208588010111156116a357600080fd5b836020870160208301376000602085830101528094505050505092915050565b600080600080608085870312156116d957600080fd5b84359350602085013567ffffffffffffffff808211156116f857600080fd5b61170488838901611636565b9450604087013591508082111561171a57600080fd5b5061172787828801611636565b949793965093946060013593505050565b60006020828403121561174a57600080fd5b813567ffffffffffffffff81111561176157600080fd5b61176d84828501611636565b949350505050565b600080600080600060a0868803121561178d57600080fd5b85359450602086013567ffffffffffffffff808211156117ac57600080fd5b6117b889838a01611636565b955060408801359150808211156117ce57600080fd5b6117da89838a01611636565b945060608801359150808211156117f057600080fd5b506117fd88828901611636565b95989497509295608001359392505050565b60006020828403121561182157600080fd5b5035919050565b60005b8381101561184357818101518382015260200161182b565b50506000910152565b60008151808452611864816020860160208601611828565b601f01601f19169290920160200192915050565b6020815281516020820152600060208301516101008060408501526118a161012085018361184c565b91506040850151601f19808685030160608701526118bf848361184c565b935060608701519150808685030160808701526118dc848361184c565b935060808701519150808685030160a0870152506118fa838261184c565b92505060a085015160c085015260c085015161192160e08601826001600160a01b03169052565b5060e0850151801515858301525090949350505050565b60006101008a83528060208401526119528184018b61184c565b90508281036040840152611966818a61184c565b9050828103606084015261197a818961184c565b9050828103608084015261198e818861184c565b60a084019690965250506001600160a01b039290921660c0830152151560e09091015295945050505050565b600080600080600060a086880312156119d257600080fd5b853567ffffffffffffffff808211156119ea57600080fd5b6119f689838a01611636565b965060208801359150808211156117ac57600080fd5b60008060408385031215611a1f57600080fd5b50508035926020909101359150565b87815286602082015260e060408201526000611a4d60e083018861184c565b8281036060840152611a5f818861184c565b608084019690965250506001600160a01b039290921660a0830152151560c090910152949350505050565b60006020808301818452808551808352604092508286019150828160051b87010184880160005b83811015611b4157603f19898403018552815160e0815185528882015189860152878201518189870152611ae78287018261184c565b91505060608083015186830382880152611b01838261184c565b6080858101519089015260a0808601516001600160a01b03169089015260c094850151151594909701939093525050509386019390860190600101611ab1565b509098975050505050505050565b60208082526012908201527114195d08191bd95cc81b9bdd08195e1a5cdd60721b604082015260600190565b60208082526014908201527343616c6c6572206973206e6f7420636c696e696360601b604082015260600190565b634e487b7160e01b600052603260045260246000fd5b8082018082111561088b57634e487b7160e01b600052601160045260246000fd5b600181811c90821680611bf457607f821691505b602082108103610c9a57634e487b7160e01b600052602260045260246000fd5b601f821115611c5e57600081815260208120601f850160051c81016020861015611c3b5750805b601f850160051c820191505b81811015611c5a57828155600101611c47565b5050505b505050565b815167ffffffffffffffff811115611c7d57611c7d611620565b611c9181611c8b8454611be0565b84611c14565b602080601f831160018114611cc65760008415611cae5750858301515b600019600386901b1c1916600185901b178555611c5a565b600085815260208120601f198616915b82811015611cf557888601518255948401946001909101908401611cd6565b5085821015611d135787850151600019600388901b60f8161c191681555b5050505050600190811b01905550565b60008251611d35818460208701611828565b9190910192915050565b6020815260006115af602083018461184c56fea2646970667358221220075f61f32e168e0acae68549d978ccc1bb0e2d70d78701506ec57c0ffa9f635c64736f6c63430008140033",
  "linkReferences": {},
  "deployedLinkReferences": {}
}